:020000000A28CC
:10000800FE00030EF4000A08F5003E28AF2864003D
:100018005030831603138F0067209620872078209E
:10002800A5206400701C2328FA307010F30A7302AC
:10003800031C23280830F301831203138706F01CDE
:1000480030286430F010F20A7202031C3028103095
:10005800F201831203138706701D152814307011DE
:10006800F10A7102031C15282030F10183120313D1
:10007800870615280B1D462801300B118312031320
:1000880087067014831203130C1C542863300C1059
:1000980010108F00C0308E00023010148706F01444
:1000A8000D1C60283C300D1013109200B0309100E8
:1000B800043013148706701575088A00740E8300BF
:1000C800FE0E7E0E09000630811281110111811485
:1000D80001108312810083160117831218169811D4
:1000E8001815981018140800831694019F010830F9
:1000F80085008701950197019C019D019601831256
:100108008501870108003C309411141193131313CF
:10011800931613161311931093119200B030910097
:1001280013140800633094101410901310139012D5
:1001380010121011901090118F00C0308E00101402
:1001480008008B010B118B160C100C160D100D16D8
:100158000B178B170800F001F101F201F30183017D
:020168000B2862
:00000001FF
