:020000000A28CC
:10000800FE00030EF4000A08F5003B28E4286420EB
:1000180087209B20CB20BC20AD20DA206400701CF8
:1000280020287010F30AFA307302031C2028F30109
:100038000830831203138706F01C2D28F010F20AEB
:1000480064307202031C2D28F2011030831203134E
:100058008706701D12287011F10A14307102031CF2
:100068001228F101203083120313870612280B1D72
:10007800432801300B11831203138706701483126F
:1000880003130C1C512863300C1010108F00C03063
:100098008E00023010148706F0140D1C5D283C30C9
:1000A8000D1013109200B03091000430131487061D
:1000B800701575088A00740E8300FE0E7E0E090006
:1000C80083160F140F178F160F16000000008316E3
:1000D80003130F19712864006B280F178F160F125E
:1000E80000000000831603130F197C28640076288B
:1000F8000F178F120F1600000000831603130F1935
:10010800080064008128203084008030040203182D
:10011800912883128001840A8928A0308400C03085
:1001280004020318080083128001840A9328063009
:10013800831681128111011181140110831281002B
:100148008316011783121816981118159810181489
:100158000800831694019F010830850087019501E6
:1001680097019C019D019601831285018701080072
:100178003C3094111411931313139316131613117F
:10018800931093119200B03091001314080063305B
:100198009410141090131013901210121011901044
:1001A80090118F00C0308E00101408008B010B11C5
:1001B8008B160C100C160D100D160B178B1708004C
:0C01C800F001F101F201F30183010B28AA
:00000001FF
