:020000000A28CC
:10000800FE00030EF0000A08F100CF29B9296400A8
:100018006030831603138F00AB218B219D21DF21D4
:10002800C4216400831203130C1C15283C301010E3
:100038008F00B0308E00033010140C10F300203005
:10004800F1207308F7007408F8000330F300D0308B
:10005800F12073087702F9007408031C740A780207
:10006800FA00E830A0000330A1007A08A30079085C
:10007800A20027212008FB006430A000A1017A0813
:10008800F5007908F400E830F2000330F30051215C
:100098007308A3007208A20027212008A7000A30CD
:1000A800A000A1017A08F5007908F4006430F20094
:1000B800F30151217308A3007208A2002721200828
:1000C800A8000A30F200F3017A08F5007908F40074
:1000D80051217208A90003307A02E8300319790225
:1000E800031C7B287B08013E840075217C28203076
:1000F800AC00B72000307A02643003197902031C7F
:100108008C28831203132708013E840075218F2849
:10011800203083120313AC00B72000307A020A3073
:1001280003197902031C9F28831203132808013E30
:1001380084007521A228203083120313AC00B72055
:10014800831203132908013E84007521AC00B720EF
:100158000D3083120313AC00B7200A308312031347
:10016800AC00B7201528051EE628DD282B08031D3E
:10017800C628BE28BF28C028C12800008512C42868
:100188000000D62809302B020319D3282C1CCF28AD
:1001980000008516D1288512D128AC0CD628D42881
:1001A8008516D628AB0A0A302B02031DB728AB01E7
:1001B800F0281630AA00E028E128E2280000AA0B5F
:1001C800E028BA280930AA00E9280000EB28EC2822
:1001D8000000AA0BEA28BA280800A000A101A20181
:1001E800A301A4019D011D08200473049D00323061
:1001F8009C15D821A301A401A5011C151C190229CD
:100208001F08A100A201A200A1011E08A10703184E
:10021800A20A2108A3070318A40A2208A407083081
:10022800A50A2502031C01290310A40CA30C031022
:10023800A40CA30C0310A40CA30C9C112408F40018
:100248002308F3000800A501A601210820040319CA
:100258004C29A401A40AA11B35290310A00DA10D46
:100268002E290310A50DA60D21082302031D3E29E2
:1002780020082202031C48292008A2022108031C86
:10028800A303A30225140310A10CA00CA40B352969
:100298002608A1002508A0000800730872040319A5
:1002A8007029F601F60AF31B5D290310F20DF30D10
:1002B800562973087502031D632972087402031C0A
:1002C8006C297208F4027308031CF503F502031085
:1002D800F30CF20CF60B5D297508F3007408F200B4
:1002E800080001308A000408840A82070034303488
:1002F80031343234333434343534363437343834B2
:100308003934613462346334643465346634983023
:10031800831681128111011181100110831281004D
:1003280083160117831218169811181598101814A7
:1003380008003C309013101394109010901610166B
:1003480010118F00B0308E000C10101408009401AA
:100358009F01103085008701950097019C019D0140
:1003680096018312850187010800F901FA01FB0152
:10037800A701A801A901AA01AB01AC0183010B28BF
:1003880083161415051583121C179C121C169C1035
:100398001C109C1108000B190B1171088A00700EB3
:1003A8008300FE0E7E0E0900F200F2037208FF3A87
:0C03B80003190800D9298B010B11080063
:00000001FF
