:020000000A28CC
:10000800FE00030EF0000A08F100D529CA29640091
:100018006030831603138F0079219F218D21BC2125
:10002800E521AE216400831203130C1C16283C3012
:1000380010108F00B0308E00033010140C10F30035
:10004800203040217308A7007408A8000330F3008B
:10005800D030402173082702F9007408031C740A81
:100068002802FA00E830A0000330A1007A08A300B3
:100078007908A200F2202008FB006430A000A1014A
:100088007A08F5007908F400E830F2000330F3004C
:100098001C217308A3007208A200F2202008A900FE
:1000A8000A30A000A1017A08F5007908F40064304C
:1000B800F200F3011C217308A3007208A200F220C9
:1000C8002008AA000A30F200F3017A08F50079083E
:1000D800F4001C217208AB0003307A02E8300319DF
:1000E8007902031C7C287B08013E840063217D285B
:1000F8002030AE00B82000307A026430031979024B
:10010800031C8D28831203132908013E84006321F0
:100118009028203083120313AE00B82000307A02F2
:100128000A3003197902031CA028831203132A0832
:10013800013E84006321A328203083120313AE00FC
:10014800B820831203132B08013E84006321AE00FC
:10015800B8200D3083120313AE00B8200A30831282
:100168000313AE00B8201628051EE728DE282D0840
:10017800031DC728BF28C028C128C228000085122F
:10018800C5280000D72809302D020319D4282E1CB1
:10019800D02800008516D2288512D228AE0CD72880
:1001A800D5288516D728AD0A0A302D02031DB82890
:1001B800AD01F1281630AC00E128E228E328000060
:1001C800AC0BE128BB280930AC00EA280000EC2879
:1001D800ED280000AC0BEB28BB280800A501A60100
:1001E8002108200403191729A401A40AA11B002926
:1001F8000310A00DA10DF9280310A50DA60D2108C7
:100208002302031D092920082202031C13292008A0
:10021800A2022108031CA303A30225140310A10CA6
:10022800A00CA40B00292608A1002508A00008009E
:100238007308720403193B29F601F60AF31B2829EF
:100248000310F20DF30D212973087502031D2E29E1
:1002580072087402031C37297208F4027308031C1D
:10026800F503F5020310F30CF20CF60B28297508B8
:10027800F3007408F2000800F5003230F601F701C7
:100288009C15DE219D011D08750473049D00F8016D
:100298001C151C194D291F08F600F701F700F60177
:1002A8001E08F6070318F70A0830F80A7802031C34
:1002B8004C299C117708F4007608F30008000130F7
:1002C8008A000408840A8207003430343134323416
:1002D800333434343534363437343834393461349B
:1002E800623463346434653466342030840080308A
:1002F80004020318832983128001840A7B29A03011
:100308008400C03004020318080083128001840AA4
:1003180085299830831681128111011181100110ED
:100328008312810083160117831218169811181565
:10033800981018140800831694019F011030850046
:100348008701950097019C019D0196018312850103
:1003580087010800831614150515151117111611B4
:1003680083121C179C121C169C101C109C11080050
:100378003C30901310139410901090161016101112
:100388008F00B0308E000C1010140800F901FA012B
:10039800FB01A901AA01AB01AC01AD01AE018301CA
:1003A8000B280B190B1171088A00700E8300FE0EC2
:1003B8007E0E0900F200F2037208FF3A03190800E2
:0803C800DF298B010B11080075
:00000001FF
