:020000000A28CC
:10000800FE00030EF0000A08F100D129F929A50025
:10001800240803190800A701240827020318080068
:10002800250884000008AB00840A0008AC001030E2
:10003800A50AA50AA0002730A1002C08A3002B08B8
:10004800A200E0202008AD00E830A0000330A100A5
:100058002C08F5002B08F4001030F2002730F300CC
:100068002F21A520E0202008AA0064309E20E83037
:10007800F2000330F3002F21A520E0202008A9007A
:100088000A309E206430F200F3012F21A520E020E1
:100098002008A8000A30F200F3012C08F5002B080C
:1000A800F4002F217208A6001330DF212D0B5F28E2
:1000B8001330DF2164282D08013E84007421532168
:1000C800AA08031D6D28AD08031D6D281330DF2114
:1000D80072282A08013E840074215321A908031DAF
:1000E8007E28AA08031D7E28AD08031D7E2813302C
:1000F800DF2183282908013E840074215321A808A0
:10010800031D9228A908031D9228AA08031D9228F6
:10011800AD08031D92281330DF2197282808013ED7
:100128008400742153212608013E84007421532140
:10013800A70A1028A000A1012C08F5002B08F4003C
:1001480008007308A3007208A20008006400603069
:10015800831603138F009021B421C321FD21A4210C
:1001680064000330F30020300A217308AE007408DD
:10017800AF000330F300D0300A2173082E02FA00D2
:100188007408031C740A2F02FB0007307B02E4305A
:1001980003197A02031CD2280516D92807307B02D6
:1001A800D03003197A02031C05127A30A401A40A7C
:1001B8000B201530DF21B428F801F90121082004AB
:1001C80003190529F701F70AA11BEE280310A00D52
:1001D800A10DE7280310F80DF90D21082302031DCE
:1001E800F72820082202031C01292008A20221085E
:1001F800031CA303A30278140310A10CA00CF70B93
:10020800EE287908A1007808A0000800F50032302F
:10021800F601F701831203139C15EC219D011D08BB
:10022800750473049D00F8011C151C1919291F0871
:10023800F600F701F700F6011E08F6070318F70A9B
:100248000830F80A7802031C18299C117708F40072
:100258007608F30008007308720403194E29F601A2
:10026800F60AF31B3B290310F20DF30D342973082A
:100278007502031D412972087402031C4A29720879
:10028800F4027308031CF503F5020310F30CF20CD7
:10029800F60B3B297508F3007408F2000800F20019
:1002A8007208F3000516F321F321F32183120313D7
:1002B8000512F321F401731C652983120313051633
:1002C80068298312031305120310F30CF321083075
:1002D800F40A7402031C5F2983120313051608002D
:1002E80001308A000408840A82070034303431342B
:1002F80032343334343435343634373438343934AA
:100308006134623463346434653466340D340A34D9
:10031800203400340A340034203084008030040251
:1003280003189A2983128001840A9229A030840034
:10033800C03004020318080083128001840A9C2933
:1003480083129C0183161415051515111711161122
:1003580083121C179C121C169C101C109C11080060
:10036800831694019F010830850087019501970144
:100378009C019D019601831285018701080083165F
:10038800051283120516831681128B128101CC3057
:10039800831281008316011708000B1DD82901302C
:1003A8000B1183120313870671088A00700E8300ED
:1003B800FE0E7E0E0900F5007508840074210038D1
:1003C800031908007508840074215321F50AE029EF
:1003D800F200F2037208FF3A03190800ED290B191D
:1003E800F7296400F3290B110800FA01FB018301C6
:0603F800AA288B01080099
:00000001FF
