:020000000A28CC
:10000800FE00030EF0000A08F100C129F629A50038
:10001800240803190800A701240827020318080068
:10002800250884000008AB00840A0008AC001030E2
:10003800A50AA50AA0002730A1002C08A3002B08B8
:10004800A2001A212008AD00E830A0000330A1006A
:100058002C08F5002B08F4001030F2002730F300CC
:100068004421A5201A212008AA0064309E20E830E7
:10007800F2000330F3004421A5201A212008A9002A
:100088000A309E206430F200F3014421A5201A2191
:100098002008A8000A30F200F3012C08F5002B080C
:1000A800F40044217208A6001330CF212D0B5F28DD
:1000B8001330CF2164282D08013E8400892168214E
:1000C800AA08031D6D28AD08031D6D281330CF2124
:1000D80072282A08013E840089216821A908031D85
:1000E8007E28AA08031D7E28AD08031D7E2813302C
:1000F800CF2183282908013E840089216821A80886
:10010800031D9228A908031D9228AA08031D9228F6
:10011800AD08031D92281330CF2197282808013EE7
:100128008400892168212608013E840089216821EC
:10013800A70A1028A000A1012C08F5002B08F4003C
:1001480008007308A3007208A200080083120313B2
:10015800A400A001A101A201A301DF2032309C1557
:10016800E921DF20A201A301A5011C151C19BA2849
:100178001F08A000A101A100A0011E08A0070318E4
:10018800A10A2008A2070318A30A2108A307083018
:10019800A50A2502031CB9280310A30CA20C0310FE
:1001A800A30CA20C0310A30CA20C9C112308F400AE
:1001B8002208F30008009D011D08240473049D0013
:1001C800080064006030831603138F00B321A52153
:1001D800F821DC2164000330F3002030AA207308E2
:1001E800AE007408AF000330F300D030AA207308C3
:1001F8002E02FA007408031C740A2F02FB00073051
:100208007B02E43003197A02031C0C290516132912
:1002180007307B02D03003197A02031C05127A30AA
:10022800A401A40A0B201530CF21EE28F801F9010A
:100238002108200403193F29F701F70AA11B2829DF
:100248000310A00DA10D21290310F80DF90D2108A7
:100258002302031D312920082202031C3B29200800
:10026800A2022108031CA303A30278140310A10C03
:10027800A00CF70B28297908A1007808A00008002D
:100288007308720403196329F601F60AF31B50294F
:100298000310F20DF30D492973087502031D562941
:1002A80072087402031C5F297208F4027308031CA5
:1002B800F503F5020310F30CF20CF60B5029750840
:1002C800F3007408F2000800F2007208F300051643
:1002D800F021F021F021831203130512F021F4011B
:1002E800731C7A298312031305167D2983120313BD
:1002F80005120310F30CF0210830F40A7402031CF1
:100308007429831203130516080001308A000408B3
:10031800840A82070034303431343234333434348C
:1003280035343634373438343934613462346334EC
:100338006434653466340D340A34203400340A34A5
:1003480000348316051283120516831681128B1248
:100358008101CC30831281008316011708009401B3
:100368009F01083085008701950197019C019D0137
:10037800960183128501870108000B1DC8290130E9
:100388000B1183120313870671088A00700E83000D
:10039800FE0E7E0E0900F5007508840089210038DC
:1003A800031908007508840089216821F50AD029F5
:1003B80083129C0183161415051583121C179C12B1
:1003C8001C169C101C109C110800F200F203720805
:1003D800FF3A03190800EA290B19F4296400F029E7
:0C03E8000B1108008301E5288B010800C0
:00000001FF
