:020000000A28CC
:10000800FE00030EF4000A08F5005728A428731C04
:100018003F281430F10A7102031C0800F101831211
:100028000313850187019D013F30941094118714B3
:100038008B158316960083120508850020300B1057
:10004800181083168F006400000000000000630091
:100058000000000064005030831603138F00000076
:1000680000000000831203131814640083120313A2
:10007800871073100800F101080073180800323067
:10008800F20A7202031C08000430F20183120313FF
:100098008706071908000A30F00A7002031C0800D6
:1000A800F001731408000B1D5F2801300B11831237
:1000B80003138706F3140B1C662883120313050821
:1000C80085000B1075088A00740E8300FE0E7E0EE4
:1000D8000900063081128111011181140110831267
:1000E8008100831601178312181698111815981095
:1000F8001814080064005030831603138F006D2015
:100108008D209C206400F31C8628F31041200B20CE
:100118008628831694019F013F308500870195004A
:1001280097019C019D0196008312850187010800B3
:100138008B018C018D018B150B118B168B17080009
:0C014800F301F001F101F20183017E28B7
:00000001FF
