:020000000A28CC
:10000800FE00030EF0000A08F1009928BD286400DC
:100018005030831603138F0064208A207820C22072
:10002800A82064007D1C15280F307D10F3002030B7
:100038003F207308F9007408FA000F30F300D0303D
:100048003F2073087902FB007408031C740A7A02C3
:10005800FC0007307C02E43003197B02031C3628BD
:100068000516152807307C02D03003197B020318C7
:10007800152805121528F5003230F601F70183120C
:1000880003139C15B6209D011D08750473049D007B
:10009800F8011C151C194E281F08F600F701F70077
:1000A800F6011E08F6070318F70A0830F80A78025E
:1000B800031C4D289C117708F4007608F30008000B
:1000C800203084008030040203186E2883128001D7
:1000D800840A6628A0308400C0300402031808008F
:1000E80083128001840A70280630831681128111D8
:1000F80001118114011083128100831601178312E4
:1001080018169811181598101814080083169401D9
:100118009F01083085008701950197019C019D0189
:10012800960183128501870108000B1DA128013063
:100138000B118312031387067D1471088A00700E51
:100148008300FE0E7E0E0900831614150515151181
:100158001711161183121C179C121C169C101C10C8
:100168009C110800F200F2037208FF3A0319080014
:10017800B728FD01FB01FC0183010B288B010B1142
:060188008B168B17080026
:00000001FF
