:020000000A28CC
:10000800FE00030EF0000A08F1008828B8288312C1
:100018000313A000A101A201A301A4019D011D08D1
:10002800200473049D0032309C15B120A301A40163
:10003800A5011C151C191E281F08A100A201A20059
:10004800A1011E08A1070318A20A2108A307031883
:10005800A40A2208A4070830A50A2502031C1D28A3
:100068000310A40CA30C0310A40CA30C0310A40CE1
:10007800A30C9C112408F4002308F3000800640072
:100088005030831603138F0097207620BD20A520BB
:100098006400791C4C2820307910F301F30A0B20F6
:1000A8007308F5007408F600D030F301F30A0B204A
:1000B80073087502F7007408031C740A7602F800C6
:1000C80007307802E43003197702031C6D280516FF
:1000D8004C2807307802D0300319770203184C28CF
:1000E80005124C28063083168112811101118114E2
:1000F80001108312810083160117831218169811B4
:1001080018159810181408000B1D902801300B11B1
:10011800831203138706791471088A00700E83000E
:10012800FE0E7E0E090094019F01083085008701AC
:10013800950197019C019D01960183128501870114
:1001480008009C0183161415051583121C179C12B0
:100158001C169C101C109C110800F200F203720877
:10016800FF3A03190800B228F901F701F8018301E1
:0C01780043288B010B118B168B1708001D
:00000001FF
