:020000000A28CC
:10000800FE00030EF0000A08F1003D288428640071
:100018005030831603138F007120882054206320EA
:100028007C206400721C1528203072108312031380
:1000380085061430F30A7302031C1528F3019D0189
:1000480085018701203083168F00640000000000BE
:1000580000006300000000006400503083160313A2
:100068008F00000000000000203083120313850673
:1000780015280B190B11831203130C180C100D1CE7
:100088004D283C300D1013109200B030910013141D
:10009800721471088A00700E8300FE0E7E0E09002D
:1000A8003C30941114119313131393161316131150
:1000B800931093119200B030910013140800831626
:1000C80094019F0185018701950197019C019D017C
:1000D800960183128501870108008115011181109D
:1000E800011483121816981118159814181408007A
:1000F8008B018C018D010D100D160B178B17080045
:0A010800F201F30183010B28080047
:00000001FF
