:020000000A28CC
:10000800FE00030EF4000A08F500A128CD28E83008
:10001800F0000330F100E830F2000330F300031081
:10002800F30CF20C831603179B00E8308312970039
:10003800033083169C00E8308312990073088316F6
:10004800970072088312920073088316980072084A
:100058008312930073088316990072088312940020
:10006800730883169A007208831295000313941775
:1000780098131813031711101112831603139F12E4
:1000880087129C129D1283120317101610149110D8
:100098009112831603131F1207121C121D128312CA
:1000A80003179016901411111113831603139F113F
:1000B80087119C119D1183120317101710159111A8
:1000C8009113831603131F1007101C101D108312A1
:1000D800031790179015080006308112811101113D
:1000E80081140110831281008316011783121816D8
:1000F80098111815981018140800640050308316C9
:1001080003138F007020BB20B0209120C6200B2045
:100118006400761C8C2876108C28831694019F0125
:100128000830850046308700950197019C009D01A5
:10013800960183128501870108000B1DA9288030CC
:100148000B11831203138706761475088A00740E40
:100158008300FE0E7E0E09009313131394151411D9
:1001680093121312131192019101131408009013A2
:100178001013941090109016101210118F018E0108
:10018800101408008B010B118B168D100D118B1795
:080198000800F6018301812833
:00000001FF
